:020000040800F2
:1000000000280020310C0008D50B0008DB0B00088D
:10001000E10B0008E70B0008ED0B000800000000F2
:10002000000000000000000000000000F30B0008CA
:10003000FF0B0008000000000B0C0008170C000864
:10004000790C0008790C0008790C0008790C00087C
:10005000790C0008790C0008790C0008790C00086C
:10006000790C0008790C0008790C0008790C00085C
:10007000790C0008790C0008790C0008790C00084C
:10008000790C0008790C0008790C0008790C00083C
:10009000790C0008790C0008790C0008790C00082C
:1000A000790C0008790C0008790C0008790C00081C
:1000B000790C0008790C000800000000790C000899
:1000C000790C00080000000000000000790C000816
:1000D00000000000790C0008790C00080000000006
:1000E000790C0008790C0008790C00080000000069
:1000F0000000000000000000000000000000000000
:0C01000000000000000000005FF808F1A3
:10010C0010B5054C237833B9044B13B10448AFF345
:10011C0000800123237010BD0C00002000000000A3
:10012C00841A000808B5034B1BB103490348AFF30D
:10013C00008008BD0000000010000020841A000898
:10014C0080B582B000AF78607B68002BC0F2AF81C5
:10015C007B68092B00F3AB8101220121BF4801F020
:10016C006BF801220221BD4801F066F8012204213E
:10017C00BA4801F061F801220821B84801F05CF896
:10018C0001221021B54801F057F801222021B34873
:10019C0001F052F801224021B04801F04DF87B6883
:1001AC00002B23D100220121AC4801F045F800229C
:1001BC000221AA4801F040F800220421A74801F0CE
:1001CC003BF800220821A54801F036F80022102146
:1001DC00A24801F031F800222021A04801F02CF8AF
:1001EC00012240219D4801F027F861E17B68012B39
:1001FC0023D101220121994801F01EF8002202218D
:10020C00964801F019F800220421944801F014F8E2
:10021C0001220821914801F00FF8012210218F488A
:10022C0001F00AF8012220218C4801F005F8012286
:10023C0040218A4801F000F83AE17B68022B23D177
:10024C0000220121854800F0F7FF0022022183489B
:10025C0000F0F2FF01220421804800F0EDFF0022A3
:10026C0008217E4800F0E8FF002210217B4800F0B6
:10027C00E3FF01222021794800F0DEFF002240211B
:10028C00764800F0D9FF13E17B68032B23D10022C1
:10029C000121724800F0D0FF002202216F4800F0CB
:1002AC00CBFF002204216D4800F0C6FF002208217C
:1002BC006A4800F0C1FF01221021684800F0BCFF21
:1002CC0001222021654800F0B7FF0022402163483D
:1002DC0000F0B2FFECE07B68042B23D1012201215A
:1002EC005E4800F0A9FF002202215C4800F0A4FF48
:1002FC0000220421594800F09FFF01220821574891
:10030C0000F09AFF01221021544800F095FF0022C2
:10031C002021524800F090FF002240214F4800F06D
:10032C008BFFC5E07B68052B23D1002201214B48B4
:10033C0000F082FF01220221484800F07DFF0022DC
:10034C000421464800F078FF00220821434800F0C1
:10035C0073FF01221021414800F06EFF0022202182
:10036C003E4800F069FF002240213C4800F064FF49
:10037C009EE07B68062B23D100220121374800F038
:10038C005BFF01220221354800F056FF00220421B8
:10039C00324800F051FF00220821304800F04CFF99
:1003AC00002210212D4800F047FF002220212B486D
:1003BC0000F042FF00224021284800F03DFF77E08A
:1003CC007B68072B23D100220121244800F034FF45
:1003DC0000220221214800F02FFF002204211F4897
:1003EC0000F02AFF012208211C4800F025FF012201
:1003FC0010211A4800F020FF01222021174800F09C
:10040C001BFF01224021154800F016FF50E07B68CD
:10041C00082B25D100220121104800F00DFF0022ED
:10042C0002210E4800F008FF002204210B4800F0C6
:10043C0003FF00220821094800F0FEFE00221021D3
:10044C00064800F0F9FE00222021044800F0F4FEDA
:10045C0000224021014800F0EFFE29E0000C014091
:10046C007B68092B24D100220121134800F0E4FE03
:10047C0000220221104800F0DFFE002204210E4869
:10048C0000F0DAFE002208210B4800F0D5FE012214
:10049C001021094800F0D0FE00222021064800F06F
:1004AC00CBFE00224021044800F0C6FE00E000BF55
:1004BC000837BD4680BD00BF000C014080B582B03E
:1004CC0000AF78607B68002BC0F2F2817B68092B4F
:1004DC0000F3EE8101228021C74800F0ADFE01221D
:1004EC004FF48071C44800F0A7FE01224FF4007154
:1004FC00C14800F0A1FE01224FF48061BE4800F01B
:10050C009BFE01224FF40061BB4800F095FE0122D6
:10051C004FF48051B84800F08FFE01224FF4005187
:10052C00B54800F089FE7B68002B29D10022802180
:10053C00B14800F081FE00224FF48071AE4800F00B
:10054C007BFE00224FF40071AB4800F075FE0022D8
:10055C004FF48061A84800F06FFE00224FF4006158
:10056C00A54800F069FE00224FF48051A24800F02B
:10057C0063FE01224FF400519F4800F05DFE98E1AC
:10058C007B68012B29D1012280219B4800F054FE6D
:10059C0000224FF48071984800F04EFE00224FF478
:1005AC000071954800F048FE01224FF4806192489A
:1005BC0000F042FE01224FF400618F4800F03CFE37
:1005CC0001224FF480518C4800F036FE01224FF48A
:1005DC000051894800F030FE6BE17B68022B29D179
:1005EC0000228021844800F027FE00224FF4807105
:1005FC00814800F021FE01224FF400717E4800F08A
:10060C001BFE00224FF480617B4800F015FE002297
:10061C004FF40061784800F00FFE01224FF4805136
:10062C00754800F009FE00224FF40051724800F0AA
:10063C0003FE3EE17B68032B29D1002280216E480A
:10064C0000F0FAFD00224FF480716B4800F0F4FDCD
:10065C0000224FF40071684800F0EEFD00224FF4C8
:10066C008061654800F0E8FD01224FF400616248AA
:10067C0000F0E2FD01224FF480515F4800F0DCFDF8
:10068C0000224FF400515C4800F0D6FD11E17B686C
:10069C00042B29D101228021574800F0CDFD0022E6
:1006AC004FF48071544800F0C7FD00224FF40071E4
:1006BC00514800F0C1FD01224FF480614E4800F01A
:1006CC00BBFD01224FF400614B4800F0B5FD002248
:1006DC004FF48051484800F0AFFD00224FF4005118
:1006EC00454800F0A9FDE4E07B68052B29D10022E8
:1006FC008021414800F0A0FD01224FF480713E485A
:10070C0000F09AFD00224FF400713B4800F094FD7C
:10071C0000224FF48061384800F08EFD01224FF426
:10072C000061354800F088FD00224FF480513248BA
:10073C0000F082FD00224FF400512F4800F07CFDA8
:10074C00B7E07B68062B29D1002280212A4800F0D3
:10075C0073FD01224FF48071274800F06DFD0022DB
:10076C004FF40071244800F067FD00224FF48061C3
:10077C00214800F061FD00224FF400611E4800F09A
:10078C005BFD00224FF480511B4800F055FD002208
:10079C004FF40051184800F04FFD8AE07B68072B9E
:1007AC002CD100228021144800F046FD00224FF489
:1007BC008071114800F040FD00224FF400710E488A
:1007CC0000F03AFD01224FF480610B4800F034FD3B
:1007DC0001224FF40061084800F02EFD01224FF475
:1007EC008051054800F028FD01224FF400510248C9
:1007FC0000F022FD5DE000BF000C01407B68082B7F
:10080C0029D1002280212C4800F016FD00224FF443
:10081C008071294800F010FD00224FF40071264829
:10082C0000F00AFD00224FF48061234800F004FD23
:10083C0000224FF40061204800F0FEFC00224FF42F
:10084C0080511D4800F0F8FC00224FF400511A486A
:10085C0000F0F2FC2DE07B68092B2AD100228021CC
:10086C00154800F0E9FC00224FF48071124800F0AA
:10087C00E3FC00224FF400710F4800F0DDFC002275
:10088C004FF480610C4800F0D7FC01224FF400615A
:10089C00094800F0D1FC00224FF48051064800F0CA
:1008AC00CBFC00224FF40051034800F0C5FC00E0E3
:1008BC0000BF0837BD4680BD000C014080B584B038
:1008CC0000AF00222021554800F0B6FC0022402148
:1008DC00524800F0B1FC01228021504800F0ACFCE1
:1008EC0001224FF480714D4800F0A6FC00224FF419
:1008FC0000714A4800F0A0FC00224FF48061474888
:10090C0000F09AFC0323FB600EE0F868FFF718FC7C
:10091C00FB6802331846FFF7D1FD4FF47A7000F0F4
:10092C0009FAFB68013BFB60FB68002BEDDC002245
:10093C0080213A4800F080FC01224021374800F029
:10094C007BFC0223BB600CE0B868FFF7F9FBB868CE
:10095C00FFF7B4FD4FF47A7000F0ECF9BB68013B83
:10096C00BB60BB68002BEFDC002240212B4800F061
:10097C0063FC01222021294800F05EFC00224FF488
:10098C008071264800F058FC01224FF48061234806
:10099C0000F052FC03237B600EE07B6802331846A8
:1009AC00FFF7CEFB7868FFF789FD4FF47A7000F003
:1009BC00C1F97B68013B7B607B68002BEDDC00227E
:1009CC004FF48061154800F037FC01224FF40071A0
:1009DC00124800F031FC02233B600CE03868FFF752
:1009EC00AFFB3868FFF76AFD4FF47A7000F0A2F99C
:1009FC003B68013B3B603B68002BEFDC0022402155
:100A0C00064800F019FC00224FF40071034800F076
:100A1C0013FC00BF1037BD4680BD00BF000801406D
:100A2C0080B500AF00F024F900F005F800F03EF8B6
:100A3C00FFF744FFFCE780B590B000AF07F1180357
:100A4C0028220021184601F00FF83B1D00221A60E5
:100A5C005A609A60DA601A610223BB610123BB629F
:100A6C001023FB6200237B6307F11803184600F088
:100A7C00FBFB0346002B01D000F06EF80F237B60CC
:100A8C000023BB600023FB6000233B6100237B61E0
:100A9C003B1D0021184600F067FE0346002B01D0D9
:100AAC0000F05AF800BF4037BD4680BD80B586B017
:100ABC0000AF07F1080300221A605A609A60DA60EE
:100ACC00224B9B69214A43F0040393611F4B9B69A2
:100ADC0003F004037B607B681C4B9B691B4A43F04F
:100AEC0008039361194B9B6903F008033B603B6857
:100AFC0000224FF4FC61164800F09EFB002243F6E6
:100B0C00FF71144800F098FB4FF4FC63BB600123A9
:100B1C00FB6000233B6102237B6107F1080319464C
:100B2C000B4800F00FFA43F6FF73BB600123FB6028
:100B3C0000233B6102237B6107F10803194605483A
:100B4C0000F000FA00BF1837BD4680BD001002400F
:100B5C0000080140000C014080B400AF72B600BF29
:100B6C00FEE7000080B485B000AF154B9B69144ABA
:100B7C0043F001039361124B9B6903F00103BB60CB
:100B8C00BB680F4BDB690E4A43F08053D3610C4BAF
:100B9C00DB6903F080537B607B680A4B5B68FB600E
:100BAC00FB6823F0E063FB60FB6843F08063FB6051
:100BBC00044AFB68536000BF1437BD4680BC7047C5
:100BCC00001002400000014080B400AFFEE780B48A
:100BDC0000AFFEE780B400AFFEE780B400AFFEE7E5
:100BEC0080B400AFFEE780B400AF00BFBD4680BC50
:100BFC00704780B400AF00BFBD4680BC704780B466
:100C0C0000AF00BFBD4680BC704780B500AF00F0A0
:100C1C0075F800BF80BD80B400AF00BFBD4680BC7E
:100C2C0070470000FFF7F7FF0B480C490C4A0023F4
:100C3C0002E0D458C4500433C4188C42F9D3094A86
:100C4C00094C002301E013600432A242FBD300F0F4
:100C5C00E7FEFFF7E5FE7047000000200C000020C7
:100C6C00C81A00080C0000202C000020FEE7000031
:100C7C0080B500AF084B1B68074A43F010031360A4
:100C8C00032000F02BF90F2000F008F8FFF76AFFA3
:100C9C000023184680BD00BF0020024080B582B002
:100CAC0000AF7860124B1A68124B1B7819464FF440
:100CBC007A73B3FBF1F3B2FBF3F3184600F035F99A
:100CCC000346002B01D001230EE07B680F2B0AD8C2
:100CDC00002279684FF0FF3000F00BF9064A7B6870
:100CEC001360002300E0012318460837BD4680BD81
:100CFC0000000020080000200400002080B400AF99
:100D0C00054B1B781A46054B1B681344034A1360AA
:100D1C0000BFBD4680BC70470800002028000020A2
:100D2C0080B400AF024B1B681846BD4680BC7047B0
:100D3C002800002080B584B000AF7860FFF7F0FF8A
:100D4C00B8607B68FB60FB68B3F1FF3F05D00A4BD2
:100D5C001B781A46FB681344FB6000BFFFF7E0FFEB
:100D6C000246BB68D31AFA689A42F7D800BF00BF94
:100D7C001037BD4680BD00BF0800002080B485B090
:100D8C0000AF78607B6803F00703FB600C4BDB68FB
:100D9C00BB60BA684FF6FF031340BB60FB681A02D6
:100DAC00BB68134343F0BF6343F40033BB60044A96
:100DBC00BB68D36000BF1437BD4680BC704700BF12
:100DCC0000ED00E080B400AF044BDB681B0A03F0BD
:100DDC0007031846BD4680BC704700BF00ED00E01D
:100DEC0080B483B000AF03463960FB7197F90730CC
:100DFC00002B0ADB3B68DAB20C4997F90730120179
:100E0C00D2B20B4483F800230AE03B68DAB20849FB
:100E1C00FB7903F00F03043B1201D2B20B441A7698
:100E2C0000BF0C37BD4680BC704700BF00E100E03E
:100E3C0000ED00E080B489B000AFF860B9607A6072
:100E4C00FB6803F00703FB61FB69C3F10703042B89
:100E5C0028BF0423BB61FB690433062B02D9FB6951
:100E6C00033B00E000237B614FF0FF32BB6902FAC9
:100E7C0003F3DA43BB681A407B699A404FF0FF31A9
:100E8C007B6901FA03F3D9437B680B401343184683
:100E9C002437BD4680BC704780B582B000AF786007
:100EAC007B68013BB3F1807F01D301230FE00A4A39
:100EBC007B68013B53600F214FF0FF30FFF790FF31
:100ECC00054B00229A60044B07221A600023184637
:100EDC000837BD4680BD00BF10E000E080B582B091
:100EEC0000AF78607868FFF749FF00BF0837BD4650
:100EFC0080BD80B586B000AF0346B9607A60FB73E5
:100F0C0000237B61FFF75EFF78617A68B9687869C6
:100F1C00FFF790FF024697F90F3011461846FFF77E
:100F2C005FFF00BF1837BD4680BD80B582B000AFF3
:100F3C0078607868FFF7B0FF034618460837BD465F
:100F4C0080BD000080B48BB000AF786039600023A6
:100F5C007B6200233B6248E101227B6A02FA03F3C5
:100F6C00FB613B681B68FA691340BB61BA69FB699A
:100F7C009A4240F037813B685B68A34A93425ED04B
:100F8C00A14A934275D8A14A934258D09F4A9342A2
:100F9C006FD89F4A934252D09D4A934269D89D4A3A
:100FAC0093424CD09B4A934263D89B4A934246D07F
:100FBC00994A93425DD8122B2AD8122B59D801A2E8
:100FCC0052F823F04B1000082510000837100008C9
:100FDC00791000087F1000087F1000087F100008AF
:100FEC007F1000087F1000087F1000087F10000899
:100FFC007F1000087F1000087F1000087F10000889
:10100C007F1000087F1000082D1000084110000808
:10101C00824A934213D02CE03B68DB683B6229E0A8
:10102C003B68DB6804333B6224E03B68DB680833D5
:10103C003B621FE03B68DB680C333B621AE03B68A9
:10104C009B68002B02D104233B6213E03B689B6836
:10105C00012B05D108233B627B68FA691A6109E010
:10106C0008233B627B68FA695A6103E000233B6208
:10107C0000E000BFBB69FF2B01D87B6801E07B68F7
:10108C0004337B61BB69FF2B02D87B6A9B0002E0B7
:10109C007B6A083B9B003B617B691A680F213B69AB
:1010AC0001FA03F3DB431A40396A3B6901FA03F393
:1010BC001A437B691A603B685B6803F08053002B12
:1010CC0000F09080564B9B69554A43F001039361A5
:1010DC00534B9B6903F00103BB60BB68514A7B6AAD
:1010EC009B08023352F82330FB607B6A03F0030346
:1010FC009B000F2202FA03F3DB43FA681340FB60F8
:10110C007B68494A93420DD07B68484A934207D08A
:10111C007B68474A934201D1022304E0032302E097
:10112C00012300E000237A6A02F00302920093404C
:10113C00FA681343FB603B497B6A9B080233FA68ED
:10114C0041F823203B685B6803F48013002B06D026
:10115C00384B9A683749BB6913438B6006E0354BB3
:10116C009A68BB69DB43334913408B603B685B680F
:10117C0003F40013002B06D02E4BDA682D49BB6903
:10118C001343CB6006E02B4BDA68BB69DB43294980
:10119C001340CB603B685B6803F40033002B06D034
:1011AC00244B5A682349BB6913434B6006E0214B1F
:1011BC005A68BB69DB431F4913404B603B685B6853
:1011CC0003F48033002B06D01A4B1A681949BB69FB
:1011DC0013430B6006E0174B1A68BB69DB431549D8
:1011EC0013400B607B6A01337B623B681A687B6A35
:1011FC0022FA03F3002B7FF4AFAE00BF00BF2C37F5
:10120C00BD4680BC704700BF00003210000031109A
:10121C00000022100000211000001210000011101C
:10122C00001002400000014000080140000C014089
:10123C00001001400004014080B483B000AF78601E
:10124C000B467B8013467B707B78002B03D07A880F
:10125C007B681A6103E07B881A047B681A6100BF03
:10126C000C37BD4680BC704780B586B000AF786047
:10127C007B68002B01D101236CE27B681B6803F0B7
:10128C000103002B00F08780924B5B6803F00C038A
:10129C00042B0CD08F4B5B6803F00C03082B12D182
:1012AC008C4B5B6803F48033B3F5803F0BD1894BD7
:1012BC001B6803F40033002B6CD07B685B68002B3D
:1012CC0068D1012346E27B685B68B3F5803F06D1A9
:1012DC00804B1B687F4A43F4803313602EE07B689D
:1012EC005B68002B0CD17B4B1B687A4A23F4803350
:1012FC001360784B1B68774A23F4802313601DE03E
:10130C007B685B68B3F5A02F0CD1724B1B68714ADC
:10131C0043F4802313606F4B1B686E4A43F4803395
:10132C0013600BE06B4B1B686A4A23F48033136029
:10133C00684B1B68674A23F4802313607B685B68E7
:10134C00002B13D0FFF7ECFC386108E0FFF7E8FC4A
:10135C0002463B69D31A642B01D90323FAE15D4B96
:10136C001B6803F40033002BF0D014E0FFF7D8FC1B
:10137C00386108E0FFF7D4FC02463B69D31A642BB2
:10138C0001D90323E6E1534B1B6803F40033002B14
:10139C00F0D100E000BF7B681B6803F00203002B58
:1013AC0063D04C4B5B6803F00C03002B0BD0494B08
:1013BC005B6803F00C03082B1CD1464B5B6803F4F1
:1013CC008033002B16D1434B1B6803F00203002B18
:1013DC0005D07B681B69012B01D00123BAE13D4B81
:1013EC001B6823F0F8027B685B69DB003949134307
:1013FC000B603AE07B681B69002B20D0364B012236
:10140C001A60FFF78DFC386108E0FFF789FC024693
:10141C003B69D31A022B01D903239BE12D4B1B688B
:10142C0003F00203002BF0D02A4B1B6823F0F802C8
:10143C007B685B69DB00274913430B6015E0264B87
:10144C0000221A60FFF76CFC386108E0FFF768FCBB
:10145C0002463B69D31A022B01D903237AE11D4BB7
:10146C001B6803F00203002BF0D17B681B6803F0B0
:10147C000803002B3AD07B689B69002B19D0174BC3
:10148C0001221A60FFF74CFC386108E0FFF748FCBA
:10149C0002463B69D31A022B01D903235AE10D4BA7
:1014AC005B6A03F00203002BF0D0012000F09AFAE3
:1014BC001CE00A4B00221A60FFF732FC38610FE087
:1014CC00FFF72EFC02463B69D31A022B08D90323E3
:1014DC0040E100BF00100240000042428004424242
:1014EC009E4B5B6A03F00203002BE9D17B681B68FF
:1014FC0003F00403002B00F0A6800023FB75974B30
:10150C00DB6903F08053002B0DD1944BDB69934ABC
:10151C0043F08053D361914BDB6903F08053BB6084
:10152C00BB680123FB758E4B1B6803F48073002B87
:10153C0018D18B4B1B688A4A43F480731360FFF7F6
:10154C00EFFB386108E0FFF7EBFB02463B69D31A6F
:10155C00642B01D90323FDE0814B1B6803F48073DA
:10156C00002BF0D07B68DB68012B06D17B4B1B6A10
:10157C007A4A43F0010313622DE07B68DB68002B91
:10158C000CD1764B1B6A754A23F001031362734B23
:10159C001B6A724A23F0040313621CE07B68DB684D
:1015AC00052B0CD16D4B1B6A6C4A43F00403136280
:1015BC006A4B1B6A694A43F0010313620BE0674BE9
:1015CC001B6A664A23F001031362644B1B6A634A6D
:1015DC0023F0040313627B68DB68002B15D0FFF744
:1015EC009FFB38610AE0FFF79BFB02463B69D31A6D
:1015FC0041F28832934201D90323ABE0574B1B6A6B
:10160C0003F00203002BEED014E0FFF789FB3861E6
:10161C000AE0FFF785FB02463B69D31A41F2883298
:10162C00934201D9032395E04C4B1B6A03F0020350
:10163C00002BEED1FB7D012B05D1484BDB69474AD2
:10164C0023F08053D3617B68DB69002B00F0818031
:10165C00424B5B6803F00C03082B61D07B68DB69A1
:10166C00022B46D13F4B00221A60FFF759FB386121
:10167C0008E0FFF755FB02463B69D31A022B01D950
:10168C00032367E0354B1B6803F00073002BF0D18C
:10169C007B681B6AB3F5803F08D1304B5B6823F441
:1016AC0000327B689B682D4913434B602B4B5B6866
:1016BC0023F474127B68196A7B685B6A0B432749B5
:1016CC0013434B60274B01221A60FFF729FB38614B
:1016DC0008E0FFF725FB02463B69D31A022B01D920
:1016EC00032337E01D4B1B6803F00073002BF0D075
:1016FC002FE01C4B00221A60FFF712FB386108E048
:10170C00FFF70EFB02463B69D31A022B01D90323C8
:10171C0020E0124B1B6803F00073002BF0D118E093
:10172C007B68DB69012B01D1012313E00B4B5B6858
:10173C00FB60FB6803F480327B681B6A9A4206D11B
:10174C00FB6803F470127B685B6A9A4201D0012338
:10175C0000E0002318461837BD4680BD001002403B
:10176C00007000406000424280B584B000AF7860E9
:10177C0039607B68002B01D10123D0E06A4B1B68D8
:10178C0003F007033A689A4210D9674B1B6823F0A1
:10179C00070265493B6813430B60634B1B6803F0FE
:1017AC0007033A689A4201D00123B8E07B681B68B2
:1017BC0003F00203002B20D07B681B6803F00403AA
:1017CC00002B05D0594B5B68584A43F4E0635360D7
:1017DC007B681B6803F00803002B05D0534B5B6838
:1017EC00524A43F460535360504B5B6823F0F00251
:1017FC007B689B684D4913434B607B681B6803F007
:10180C000103002B40D07B685B68012B07D1474B51
:10181C001B6803F40033002B15D101237FE07B6898
:10182C005B68022B07D1414B1B6803F00073002B44
:10183C0009D1012373E03D4B1B6803F00203002B1D
:10184C0001D101236BE0394B5B6823F003027B6809
:10185C005B68364913434B60FFF762FAF8600AE0A5
:10186C00FFF75EFA0246FB68D31A41F288329342C4
:10187C0001D9032353E02D4B5B6803F00C027B680A
:10188C005B689B009A42EBD1274B1B6803F0070364
:10189C003A689A4210D2244B1B6823F00702224963
:1018AC003B6813430B60204B1B6803F007033A683B
:1018BC009A4201D0012332E07B681B6803F00403D9
:1018CC00002B08D0194B5B6823F4E0627B68DB6863
:1018DC00164913434B607B681B6803F00803002B0D
:1018EC0009D0124B5B6823F460527B681B69DB00E8
:1018FC000E4913434B6000F021F802460B4B5B681A
:10190C001B0903F00F030A49CB5C22FA03F3094AC3
:10191C001360094B1B681846FFF7C0F900231846E3
:10192C001037BD4680BD00BF0020024000100240B1
:10193C009C1A0008000000200400002080B487B02E
:10194C0000AF0023FB600023BB6000237B610023FE
:10195C007B6000233B611E4B5B68FB60FB6803F004
:10196C000C03042B02D0082B03D027E0194B3B614E
:10197C0027E0FB689B0C03F00F03174AD35C7B60DA
:10198C00FB6803F48033002B10D0114B5B685B0CAD
:10199C0003F00103114AD35CBB607B680D4A02FB68
:1019AC0003F2BB68B2FBF3F37B6104E07B680C4A87
:1019BC0002FB03F37B617B693B6102E0054B3B61FE
:1019CC0000BF3B6918461C37BD4680BC704700BF42
:1019DC000010024000127A00AC1A0008BC1A000871
:1019EC0000093D0080B485B000AF78600A4B1B68DD
:1019FC000A4AA2FB03235B0A7A6802FB03F3FB602F
:101A0C0000BFFB685A1EFA60002BF9D100BF00BF63
:101A1C001437BD4680BC704700000020D34D6210C7
:101A2C0070B500260C4D0D4C641BA410A64209D1B8
:101A3C0000F022F800260A4D0A4C641BA410A642A2
:101A4C0005D170BD55F8043B98470136EEE755F8C3
:101A5C00043B98470136F2E7C01A0008C01A000888
:101A6C00C01A0008C41A000803460244934200D16D
:101A7C00704703F8011BF9E7F8B500BFF8BC08BCC8
:101A8C009E467047F8B500BFF8BC08BC9E46704730
:101A9C000000000000000000010203040607080912
:101AAC0002030405060708090A0B0C0D0E0F101093
:041ABC000102000023
:041AC00031010008E8
:041AC4000D01000808
:0C1AC80000127A00100000000100000075
:0400000508000C31B2
:00000001FF
